{"abi":[{"type":"constructor","inputs":[],"stateMutability":"nonpayable"},{"type":"function","name":"authorize","inputs":[{"name":"identifier","type":"bytes32","internalType":"bytes32"},{"name":"addr","type":"address","internalType":"address"}],"outputs":[],"stateMutability":"nonpayable"},{"type":"function","name":"emitEvent","inputs":[{"name":"identifier","type":"bytes32","internalType":"bytes32"},{"name":"message","type":"bytes","internalType":"bytes"},{"name":"value","type":"uint256","internalType":"uint256"}],"outputs":[],"stateMutability":"nonpayable"},{"type":"function","name":"isAuthorized","inputs":[{"name":"","type":"address","internalType":"address"},{"name":"","type":"bytes32","internalType":"bytes32"}],"outputs":[{"name":"","type":"bool","internalType":"bool"}],"stateMutability":"view"},{"type":"function","name":"owner","inputs":[],"outputs":[{"name":"","type":"address","internalType":"address"}],"stateMutability":"view"},{"type":"function","name":"removeAuthorization","inputs":[{"name":"identifier","type":"bytes32","internalType":"bytes32"},{"name":"addr","type":"address","internalType":"address"}],"outputs":[],"stateMutability":"nonpayable"},{"type":"function","name":"transferOwnership","inputs":[{"name":"newOwner","type":"address","internalType":"address"}],"outputs":[],"stateMutability":"nonpayable"},{"type":"event","name":"AuthorizationGranted","inputs":[{"name":"addr","type":"address","indexed":true,"internalType":"address"},{"name":"identifier","type":"bytes32","indexed":true,"internalType":"bytes32"}],"anonymous":false},{"type":"event","name":"AuthorizationRevoked","inputs":[{"name":"addr","type":"address","indexed":true,"internalType":"address"},{"name":"identifier","type":"bytes32","indexed":true,"internalType":"bytes32"}],"anonymous":false},{"type":"event","name":"LogArgument","inputs":[{"name":"sender","type":"address","indexed":true,"internalType":"address"},{"name":"identifier","type":"bytes32","indexed":true,"internalType":"bytes32"},{"name":"message","type":"bytes","indexed":false,"internalType":"bytes"},{"name":"value","type":"uint256","indexed":false,"internalType":"uint256"}],"anonymous":false},{"type":"event","name":"OwnershipTransferred","inputs":[{"name":"newOwner","type":"address","indexed":true,"internalType":"address"}],"anonymous":false}],"bytecode":{"object":"0x6080604052348015600f57600080fd5b50600080546001600160a01b03191633179055610600806100316000396000f3fe608060405234801561001057600080fd5b50600436106100625760003560e01c80634d89084b1461006757806384921f731461007c5780638da5cb5b1461008f578063de11892b146100bf578063e50c7a8f146100fd578063f2fde38b14610110575b600080fd5b61007a610075366004610423565b610123565b005b61007a61008a366004610465565b6101ec565b6000546100a2906001600160a01b031681565b6040516001600160a01b0390911681526020015b60405180910390f35b6100ed6100cd366004610529565b600160209081526000928352604080842090915290825290205460ff1681565b60405190151581526020016100b6565b61007a61010b366004610423565b610296565b61007a61011e366004610553565b610357565b6000546001600160a01b031633146101915760405162461bcd60e51b815260206004820152602660248201527f4f6e6c7920746865206f776e65722063616e20617574686f72697a652061646460448201526572657373657360d01b60648201526084015b60405180910390fd5b6001600160a01b0381166000818152600160208181526040808420878552909152808320805460ff1916909217909155518492917ff07876d0785a459b0f9410464818c9911adb4b27c05260aa301a13529e32270591a35050565b33600090815260016020908152604080832086845290915290205460ff1661024d5760405162461bcd60e51b8152602060048201526014602482015273556e617574686f72697a6564206164647265737360601b6044820152606401610188565b82336001600160a01b03167fa751d5fc8246910008783a026d97c9df1c194346b52fa5bbb0d2c846583a93228484604051610289929190610575565b60405180910390a3505050565b6000546001600160a01b031633146103005760405162461bcd60e51b815260206004820152602760248201527f4f6e6c7920746865206f776e65722063616e2072656d6f766520617574686f7260448201526634bd30ba34b7b760c91b6064820152608401610188565b6001600160a01b0381166000818152600160209081526040808320868452909152808220805460ff19169055518492917f257d2a0d66145c3f0ceaabbde2dc9639c6bd0027c301635c8f5127b26c8e40f591a35050565b6000546001600160a01b031633146103bf5760405162461bcd60e51b815260206004820152602560248201527f4f6e6c7920746865206f776e65722063616e207472616e73666572206f776e65604482015264072736869760dc1b6064820152608401610188565b600080546001600160a01b0319166001600160a01b038316908117825560405190917f04dba622d284ed0014ee4b9a6a68386be1a4c08a4913ae272de89199cc68616391a250565b80356001600160a01b038116811461041e57600080fd5b919050565b6000806040838503121561043657600080fd5b8235915061044660208401610407565b90509250929050565b634e487b7160e01b600052604160045260246000fd5b60008060006060848603121561047a57600080fd5b83359250602084013567ffffffffffffffff8082111561049957600080fd5b818601915086601f8301126104ad57600080fd5b8135818111156104bf576104bf61044f565b604051601f8201601f19908116603f011681019083821181831017156104e7576104e761044f565b8160405282815289602084870101111561050057600080fd5b826020860160208301376000602084830101528096505050505050604084013590509250925092565b6000806040838503121561053c57600080fd5b61054583610407565b946020939093013593505050565b60006020828403121561056557600080fd5b61056e82610407565b9392505050565b604081526000835180604084015260005b818110156105a35760208187018101516060868401015201610586565b506000606082850101526060601f19601f830116840101915050826020830152939250505056fea264697066735822122004ef91db56a1c3c3ff81dd5ce7b880f97de6d2ad4f69a6d42aef885d719f450e64736f6c63430008190033","linkReferences":{}},"methodIdentifiers":{"authorize(bytes32,address)":"4d89084b","emitEvent(bytes32,bytes,uint256)":"84921f73","isAuthorized(address,bytes32)":"de11892b","owner()":"8da5cb5b","removeAuthorization(bytes32,address)":"e50c7a8f","transferOwnership(address)":"f2fde38b"},"id":0}